S01300006F75747075742F736F66742E7372656375
S214008000130000001300000013000000130000001F
S214008010130000001300000013000000130000000F
S21400802013000000130000001300000013000000FF
S21400803013000000130000001300000013000000EF
S21400804013000000130000001300000013000000DF
S2140080501300000013000000130000006F0040092A
S2140080606F00200A6F00000B6F00E00B6F00C00C63
S2140080706F00C00E6F00600D6F0080106F00200F45
S2100080806F00C0006F00E0106F00C01121
S21400808C81400681868106828682068386830684E4
S21400809C868406858685068686860687868706886F
S2140080AC868806898689068A868A068B868B068C3F
S2140080BC868C068D868D068E868E068F868F17018D
S2140080CC1000130161F36357BD0123200D00110D41
S2140080DCE3DDADFF01458145EF00407D2A84228516
S2140080ECEF0040211D7186CEC920970000009380BA
S2140080FC80106F0060161D7186CE45289700000014
S21400810C9380600F6F0060151D7186CE79289700DE
S21400811C00009380400E6F0060141D7186CE712097
S21400812C970000009380200D6F0060131D7186CEA3
S21400813CAD28970000009380000C6F0060121D7134
S21400814C86CEA520970000009380E00A6F00801171
S21400815C1D7186CE9928970000009380C0096F0089
S21400816C40101D7186CE9120970000009380A008C9
S21400817C6F00800F1D7186CE0D289700000093802F
S21400818C80076F00400E1D7186CE052097000000FC
S21400819C938060066F00000C1D7186CE3920970008
S2140081AC0000938040056F00000B0EC012C216C470
S2140081BC1AC61EC82ACA2ECC32CE36D03AD23ED4D6
S2140081CC42D646D872DA76DC7ADEFEC0732E007B98
S2140081DCF32E107B732F207BF2C2F6C4FAC6732ED6
S2140081EC407BF32E507B732F607BF2C8F6CAFACC1A
S2140081FC8280464ED64E664F73104E7B73905E7BD7
S21400820C73106F7B164EA64E364F73100E7B739004
S21400821C1E7B73102F7B82411242A2423243C24312
S21400822C5245E245724682561257A2573258C258E9
S21400823C525EE25E725F864FF64025617300203018
S21400824C828000000000000000000000000000001B
S20600825C00001B
S20600825E01A078
S20600826001A076
S20600826201A074
S20600826401A072
S20600826601A070
S20600826801A06E
S20600826A01A06C
S20600826C01A06A
S20600826E01A068
S20600827001A066
S20600827201A064
S20600827401A062
S214008276411106C622C463F4D500014429A03684FB
S214008286B2853686A9282285B240224441018280DC
S20600829625A814
S214008298931585010605FD85ED892D8D1375F50F5A
S2060082A88280CD
S2140082AA05C281462E960347050083C70500850545
S2140082BA3D8FD98E0505E398C5FE13F5F60F828025
S2080082CA0145828063
S2140082CE11CA2A96AA86138716002380B600BA8687
S20A0082DEE31BC7FE8280D0
S2140082E409CE2A96AA8603C7050085059387160035
S2100082F42380E600BE86E398C7FE82806A
S20600830001A0D5
S20600830201A0D3
S21400830441112AC632456358A00001450100B24512
S20E0083140505E34DB5FE4101828029
S21400831E411122C613860501AE860347050023804B
S21400832EE60085060505E39AC6FE3147B70210003D
S21400833E9382020037081000130808109308C00A2C
S21400834EB387E50003C3070003CF170083CE2700CD
S21400835E83C3370011079376C70095E63386E2018E
S21400836E3385D2019693169393564700C29603CE44
S21400837EF6FF83460600034F050083CE03008343B5
S21400838E03003343DE0003CE47FF83CF57FF03C4FD
S21400839E67FF83C677FF33456E0033C6EF0133445F
S2140083AED401B3C676002382A700A382C700238318
S2140083BE8700A383D700E36517F932444101828014
S2140083CE93050501370610001306060083460500C2
S2140083DEB29683C606002300D5000505E318B5FE43
S2060083EE828086
S2140083F0034855008348650003437500834E950087
S2140084008347A5008342B500034ED5008345E500AB
S2140084108346F500834315000346250003473500D1
S214008420A30005012301F500A301D500A302D50191
S2140084302303B500A303E500A304C5012305C50077
S214008440A3056500A306750023071501A3075500BD
S206008450828023
S2140084520146A1461397F501931785017D87698F1B
S2140084620605FD16FD87ED8B398E3D8D8581FDF265
S20A0084721375F60F828070
S214008478797106D622D426D24AD04ECE014F93081A
S214008488C10011488146931F2F00B305F50103C9A3
S214008498050009472146CA859397F5019314870175
S2140084A8FD87F98F0607E2057D16FD84ED88BD8EEB
S2140084B8258FE58175F20147938E1F00B305D50118
S2140084C883C305008D4521469E879394F701139430
S2140084D88501FD84ED8C8605E2077D167D846D8812
S2140084E8258FA18DE58375F2B98E13832F009382AD
S2140084F83F00B30565003307550003CE05008349E2
S2140085080700C69F0947B3C5C601B3C53501238012
S214008518BF00A1459E879396F70113148701FD8631
S214008528F98E0607E207FD157D846D88358E218F46
S214008538E583F5F18D47214772849316F4019394E9
S2140085488701FD86FD8E860762047D17FD84ED880B
S214008558B58DA58F658075F3B3C62901358EC69E81
S214008568B18D09462380BE00A145F2879396F70190
S21400857893148601FD86F18E0606E207FD15FD8436
S214008588ED88358F258EE583F5F10146B3CE2301B8
S2140085988D47A145CE869394F60113948701FD84F2
S2140085A8FD8C8607E206FD157D846D88258EA18FD5
S2140085B8E582F5F1B3C6EE004693358E0D472300E7
S2140085C8C30021469316F90193178701FD86F98E95
S2140085D8060762097D16FD87ED8BB58D3D8F13590D
S2140085E899016DF2894721479396F901939487017B
S2140085F8FD86FD8E8607E2097D17FD84ED88358E9B
S214008608A58F93D999016DF3B3467E00C692B58DB2
S214008618B18D050F2380B200E3160FE76C004146C4
S2140086287539B250225492540259F24945618280F3
S2140086381306050183C6050003470500B98E230007
S210008648D50005058505E317C5FE8280F9
S214008654397106DE22DC26DA4AD84ED652D456D2F1
S2140086645AD05ECE3289AE890348C5000346D5008B
S2140086748346E5000347F500834785008344950059
S2140086840344A5008345B5002206C2066207A20479
S21400869433680601B368D700C58F03474500834493
S2140086A4550003466500834675004204E205A204AD
S2140086B44206E206C18D458F834405000344150037
S2140086C4558E83462500034535002204458CC20694
S2140086D46205558DB3E60801DD8D598E498C680018
S2140086E422C632C82ECA36CC6008CE8503C605001C
S2140086F483460500358E2300C50005058505E3176A
S21400870485FE138A0901854AB70B1000938B0B006C
S214008714294B680083450500DE9583C505002300C4
S214008724B5000505E31885FE0348110183482101B9
S21400873483423101834651010347610103437101BA
S214008744834491010345A1018345B1018343D100CC
S2140087548347E1000346F100A30601012307E10075
S214008764A307B100A308D1002309A100A309C100EF
S214008774A30A9100230BF100A30B5100A30C710074
S214008784230D1101A30D610068006400E5315285D4
S2140087948345050003C60400B18D2380B400850418
S2140087A40505E39784FE850A410AE3946AF76800A0
S2140087B483450500DE9583C505002300B500050541
S2140087C4E31885FE834811010348210183423101E1
S2140087D483465101034761010343710183449101B8
S2140087E48345A1010345B1018343D1008347E100DA
S2140087F40346F100A30611012307E100A307A10025
S214008804A308D1002309B100A309C100A30A91005B
S214008814230BF1001385090AA30B5100A30C710066
S214008824230D0101A30D61006C000346050083C6F9
S2140088340500358E2380C50085050505E39785FE6E
S2140088446C0041464A85693CF2506254D2544259FF
S212008854B259225A925A025BF24B2161828080
S214008862557186C7A2C5A6C3CAC14EDFAE84BD89EE
S2140088728DE13689AA896C0032854D3499C8014447
S21400888233858900330689006C00E1334104E369CD
S21400889294FEBE402E449E440E49FA596961828077
S2080088A20CC18280FE
S2140088A613060501944114C111059105E31CC5FE86
S2060088B68280B9
S2140088B8011106CE22CC26CA4AC837291000370529
S2140088C810001305A512370610001306A610C1449B
S2140088D8C1458A860A8451373715A5FBB7F54B710B
S2140088E837B6252E130545912328A9023715F9AA68
S2140088F89385F5411306E6AB1305F580232AB902DE
S214008908232CC902232EA90202452320A9041245B6
S2140089182322A90422452324A9043245B7051000BA
S2140089289385A51137B6AABA2326A904B7C6FECAE0
S2140089381305D6AA1386E6AB8346040003C70500CC
S2140089486397E600FD1485050504FDF432852322A9
S214008958A90037C5ADDE1305F5EEB725100088C1AA
S2120089680145F2406244D244424905618280D5
S214100000637C777BF26B6FC53001672BFED7AB76C0
S214100010CA82C97DFA5947F0ADD4A2AF9CA472C06B
S214100020B7FD9326363FF7CC34A5E5F171D83115D8
S21410003004C723C31896059A071280E2EB27B275F9
S21410004009832C1A1B6E5AA0523BD6B329E32F8471
S21410005053D100ED20FCB15B6ACBBE394A4C58CF69
S214100060D0EFAAFB434D338545F9027F503C9FA83D
S21410007051A3408F929D38F5BCB6DA2110FFF3D20B
S214100080CD0C13EC5F974417C4A77E3D645D1973BF
S21410009060814FDC222A908846EEB814DE5E0BDBB9
S2141000A0E0323A0A4906245CC2D3AC629195E479F0
S2141000B0E7C8376D8DD54EA96C56F4EA657AAE084A
S2141000C0BA78252E1CA6B4C6E8DD741F4BBD8B8AE5
S2141000D0703EB5664803F60E613557B986C11D9E4B
S2141000E0E1F8981169D98E949B1E87E9CE5528DFC2
S2141000F08CA1890DBFE6426841992D0FB054BB16EE
S21410010001020408102040801B3663657365343086
S214100110343070617373776F72641409A5FB1FF423
S2141001204B71BEAA252E0F08F9AA48656C6C6F2C69
S20E10013020576F726C6421303030D7
S20610013A0000AE
S8040080D2A9
